input transaction:

01000000013494b3c5692616175450f9948483210fbdcf68c5a7d63fa209716fd7ec5fc2d1000000006b483045022100b53a179b59043af84cdf2b6b9304fc33221c0ea3cea30e196dec5cbd977232f002206c743906bd80827b93343e3363674d45a45c00b5c621a30d7b058ff5687f8fd7012102a5afd2154ac31041999f1d7cd371f7be53a131e79a10f9b8c3808b38d67db65dffffffff0108b7030000000000160014a585f23b76603ec569eb3b5c569343b4c866d1fc00000000

txid         : 1a6bc39dcfdc2a456f12b555a6102c75efacb15bb7aa501a68de22ab2c011047
vout         : 0
scriptPubKey : 0014a585f23b76603ec569eb3b5c569343b4c866d1fc
amount       : 08b7030000000000

paying to:

scriptPubKey : 1976a914090b91aea1b26b57feca94ae6372b14cb7bb7b4388ac
amount       : e5b7030000000000

-------------------------------------------------------------------------------

prevouts : 4710012CAB22DE681A50AAB75BB1ACEF752C10A655B5126F452ADCCF9DC36B1A00000000

dSHA256(prevouts) : EE935F9A59F03C62EA1A2DDFBC6F56A3542E47609C0BC70DC993157325578664


nSequence : FFFFFFFF

dHSA256(nSequence) : 3BB13029CE7B1F559EF5E747FCAC439F1455A2EC7C5F09B72290795E70665044


outputs : e5b70300000000001976a914090b91aea1b26b57feca94ae6372b14cb7bb7b4388ac

dSHA256(outputs) : C19081D55890499181D8C274C85A017B51965456B022FA08308046C7973D0D77


nVersion     : 01000000
hashPrevouts : EE935F9A59F03C62EA1A2DDFBC6F56A3542E47609C0BC70DC993157325578664
hashSequence : 3BB13029CE7B1F559EF5E747FCAC439F1455A2EC7C5F09B72290795E70665044
outpoint     : 4710012CAB22DE681A50AAB75BB1ACEF752C10A655B5126F452ADCCF9DC36B1A00000000
scriptCode   : 1976A914A585F23B76603EC569EB3B5C569343B4C866D1FC88AC
amount       : 08B7030000000000
nSequence    : FFFFFFFF
hashOutputs  : C19081D55890499181D8C274C85A017B51965456B022FA08308046C7973D0D77
nLockTime    : 00000000
nHashType    : 01000000


hash preimage :
01000000EE935F9A59F03C62EA1A2DDFBC6F56A3542E47609C0BC70DC9931573255786643BB13029CE7B1F559EF5E747FCAC439F1455A2EC7C5F09B72290795E706650444710012CAB22DE681A50AAB75BB1ACEF752C10A655B5126F452ADCCF9DC36B1A000000001976A914A585F23B76603EC569EB3B5C569343B4C866D1FC88AC08B7030000000000FFFFFFFFC19081D55890499181D8C274C85A017B51965456B022FA08308046C7973D0D770000000001000000

address (from scriptcode):
DLEJVf4JTHiFVXrD2s2bx8FyczV52E5y57

private key:
QUrXNtrRi3SSwNpQjXET31P4mCTgmVy4aXC5C23ERY3qXzfTUU91

private key hex:
BA2C74DFA48922CCE8A4AC254F8FB244804A5954C1D7381E557D78428CAC075C

public key:
0321D4234C32AC7F6371E8D9F4981545A240DFA44DAD05FF6FC5BD7BBD529F5D9D


SHA256(hash preimage) : 0FE857DCC5B40495199F3FD3C3C39E80EED7ECB5F543588825B3C30E4DDE16BA
dSHA256(hash preimage) : 848AB93CA08455340BFC7E2D990ECAE2E9E5D483AE8A9A392A3E2B402BF5BF45


rfc6979(private key hex, 0FE857DCC5B40495199F3FD3C3C39E80EED7ECB5F543588825B3C30E4DDE16BA) :

# K : 2D9181BB2810D0FEF5D7B5EE4807092591A70101D4DD39158294E5AB1D0F48DA

# KX : 9A3801C0FA8D4CAD9916C3B78E4201F0EBDEBCA661B901755613463924A12529
# KY : B5AA22148503FC76891C420DE7F454D2A6CA35E1761F26CB43533218E816DFEF

Core's 'r' value : 00F77E6F8AA234ED6AC89F8F309AC58DC80EC24A46934DA3326339B852FCF1B3DB
Core's 's' value : 2AF552F7791006E0DA0DA0C0F0CEB40586982D3F007AA7F86B58D251457EAC86

^^ not able to reproduce K value from private key + SHA256(hash preimage)
   (complete signed transaction below)


verify(848AB93CA08455340BFC7E2D990ECAE2E9E5D483AE8A9A392A3E2B402BF5BF45,21D4234C32AC7F6371E8D9F4981545A240DFA44DAD05FF6FC5BD7BBD529F5D9D,6E6C859C21E7B17C1121BC9930C1C8D6A19AB9E60800703EE42DF41D2EE08141,00F77E6F8AA234ED6AC89F8F309AC58DC80EC24A46934DA3326339B852FCF1B3DB,2AF552F7791006E0DA0DA0C0F0CEB40586982D3F007AA7F86B58D251457EAC86)

# RX : 6E66F32EA42A9D215D3D1D1609C4CC77C726F26EA3A471A65AD27E058EA516FE
# RY : E1220F7819866C5368784F9286162F21D671B5B6342C5369FDFFEB0C15827310
# failed

^^ not able to verify the signature using dSHA256(hash preimage) as sigHash + Core's signature


Core's signed transaction (not broadcast yet):

01000000
00
01
01
  4710012CAB22DE681A50AAB75BB1ACEF752C10A655B5126F452ADCCF9DC36B1A
  00000000
  00
  FFFFFFFF

01
  E5B7030000000000
  19
    76 A9 14 090B91AEA1B26B57FECA94AE6372B14CB7BB7B43 88 AC
02
  48
    30
    45
      02
      21
        00F77E6F8AA234ED6AC89F8F309AC58DC80EC24A46934DA3326339B852FCF1B3DB
      02
      20
        2AF552F7791006E0DA0DA0C0F0CEB40586982D3F007AA7F86B58D251457EAC86
    01
  21
    0321D4234C32AC7F6371E8D9F4981545A240DFA44DAD05FF6FC5BD7BBD529F5D9D
00000000


010000000001014710012CAB22DE681A50AAB75BB1ACEF752C10A655B5126F452ADCCF9DC36B1A0000000000FFFFFFFF01E5B70300000000001976A914090B91AEA1B26B57FECA94AE6372B14CB7BB7B4388AC02483045022100F77E6F8AA234ED6AC89F8F309AC58DC80EC24A46934DA3326339B852FCF1B3DB02202AF552F7791006E0DA0DA0C0F0CEB40586982D3F007AA7F86B58D251457EAC8601210321D4234C32AC7F6371E8D9F4981545A240DFA44DAD05FF6FC5BD7BBD529F5D9D00000000
